{
  "_format": "hh-sol-artifact-1",
  "contractName": "DeVote",
  "sourceName": "contracts/DeVote.sol",
  "abi": [
    {
      "inputs": [],
      "stateMutability": "nonpayable",
      "type": "constructor"
    },
    {
      "inputs": [],
      "name": "EnforcedPause",
      "type": "error"
    },
    {
      "inputs": [],
      "name": "ExpectedPause",
      "type": "error"
    },
    {
      "inputs": [
        {
          "internalType": "address",
          "name": "owner",
          "type": "address"
        }
      ],
      "name": "OwnableInvalidOwner",
      "type": "error"
    },
    {
      "inputs": [
        {
          "internalType": "address",
          "name": "account",
          "type": "address"
        }
      ],
      "name": "OwnableUnauthorizedAccount",
      "type": "error"
    },
    {
      "inputs": [],
      "name": "ReentrancyGuardReentrantCall",
      "type": "error"
    },
    {
      "anonymous": false,
      "inputs": [
        {
          "indexed": true,
          "internalType": "uint256",
          "name": "voteId",
          "type": "uint256"
        },
        {
          "indexed": false,
          "internalType": "string",
          "name": "reason",
          "type": "string"
        }
      ],
      "name": "EmergencyVoteCancelled",
      "type": "event"
    },
    {
      "anonymous": false,
      "inputs": [
        {
          "indexed": true,
          "internalType": "address",
          "name": "previousOwner",
          "type": "address"
        },
        {
          "indexed": true,
          "internalType": "address",
          "name": "newOwner",
          "type": "address"
        }
      ],
      "name": "OwnershipTransferred",
      "type": "event"
    },
    {
      "anonymous": false,
      "inputs": [
        {
          "indexed": false,
          "internalType": "address",
          "name": "account",
          "type": "address"
        }
      ],
      "name": "Paused",
      "type": "event"
    },
    {
      "anonymous": false,
      "inputs": [
        {
          "indexed": false,
          "internalType": "address",
          "name": "account",
          "type": "address"
        }
      ],
      "name": "Unpaused",
      "type": "event"
    },
    {
      "anonymous": false,
      "inputs": [
        {
          "indexed": true,
          "internalType": "uint256",
          "name": "voteId",
          "type": "uint256"
        }
      ],
      "name": "VoteCancelled",
      "type": "event"
    },
    {
      "anonymous": false,
      "inputs": [
        {
          "indexed": true,
          "internalType": "uint256",
          "name": "voteId",
          "type": "uint256"
        },
        {
          "indexed": true,
          "internalType": "address",
          "name": "voter",
          "type": "address"
        },
        {
          "indexed": false,
          "internalType": "uint256[]",
          "name": "choices",
          "type": "uint256[]"
        }
      ],
      "name": "VoteCast",
      "type": "event"
    },
    {
      "anonymous": false,
      "inputs": [
        {
          "indexed": true,
          "internalType": "uint256",
          "name": "voteId",
          "type": "uint256"
        },
        {
          "indexed": false,
          "internalType": "string",
          "name": "title",
          "type": "string"
        },
        {
          "indexed": true,
          "internalType": "address",
          "name": "creator",
          "type": "address"
        },
        {
          "indexed": false,
          "internalType": "uint256",
          "name": "startTime",
          "type": "uint256"
        },
        {
          "indexed": false,
          "internalType": "uint256",
          "name": "endTime",
          "type": "uint256"
        }
      ],
      "name": "VoteCreated",
      "type": "event"
    },
    {
      "anonymous": false,
      "inputs": [
        {
          "indexed": true,
          "internalType": "uint256",
          "name": "voteId",
          "type": "uint256"
        }
      ],
      "name": "VoteEnded",
      "type": "event"
    },
    {
      "inputs": [],
      "name": "autoEndExpiredVotes",
      "outputs": [],
      "stateMutability": "nonpayable",
      "type": "function"
    },
    {
      "inputs": [
        {
          "internalType": "uint256[]",
          "name": "_voteIds",
          "type": "uint256[]"
        }
      ],
      "name": "batchEndExpiredVotes",
      "outputs": [],
      "stateMutability": "nonpayable",
      "type": "function"
    },
    {
      "inputs": [
        {
          "internalType": "uint256",
          "name": "_voteId",
          "type": "uint256"
        },
        {
          "internalType": "address",
          "name": "_user",
          "type": "address"
        }
      ],
      "name": "canUserVote",
      "outputs": [
        {
          "internalType": "bool",
          "name": "",
          "type": "bool"
        }
      ],
      "stateMutability": "view",
      "type": "function"
    },
    {
      "inputs": [
        {
          "internalType": "uint256",
          "name": "_voteId",
          "type": "uint256"
        }
      ],
      "name": "cancelVote",
      "outputs": [],
      "stateMutability": "nonpayable",
      "type": "function"
    },
    {
      "inputs": [
        {
          "internalType": "uint256",
          "name": "_voteId",
          "type": "uint256"
        },
        {
          "internalType": "uint256[]",
          "name": "_choices",
          "type": "uint256[]"
        }
      ],
      "name": "castVote",
      "outputs": [],
      "stateMutability": "nonpayable",
      "type": "function"
    },
    {
      "inputs": [
        {
          "internalType": "string",
          "name": "_title",
          "type": "string"
        },
        {
          "internalType": "string",
          "name": "_description",
          "type": "string"
        },
        {
          "internalType": "string[]",
          "name": "_options",
          "type": "string[]"
        },
        {
          "internalType": "enum DeVote.VoteType",
          "name": "_voteType",
          "type": "uint8"
        },
        {
          "internalType": "uint256",
          "name": "_startTime",
          "type": "uint256"
        },
        {
          "internalType": "uint256",
          "name": "_endTime",
          "type": "uint256"
        },
        {
          "internalType": "bool",
          "name": "_isPrivate",
          "type": "bool"
        },
        {
          "internalType": "address[]",
          "name": "_allowedVoters",
          "type": "address[]"
        }
      ],
      "name": "createVote",
      "outputs": [
        {
          "internalType": "uint256",
          "name": "",
          "type": "uint256"
        }
      ],
      "stateMutability": "nonpayable",
      "type": "function"
    },
    {
      "inputs": [
        {
          "internalType": "uint256",
          "name": "_voteId",
          "type": "uint256"
        },
        {
          "internalType": "string",
          "name": "_reason",
          "type": "string"
        }
      ],
      "name": "emergencyCancelVote",
      "outputs": [],
      "stateMutability": "nonpayable",
      "type": "function"
    },
    {
      "inputs": [
        {
          "internalType": "uint256",
          "name": "_voteId",
          "type": "uint256"
        }
      ],
      "name": "endVote",
      "outputs": [],
      "stateMutability": "nonpayable",
      "type": "function"
    },
    {
      "inputs": [],
      "name": "getAllVoteIds",
      "outputs": [
        {
          "internalType": "uint256[]",
          "name": "",
          "type": "uint256[]"
        }
      ],
      "stateMutability": "view",
      "type": "function"
    },
    {
      "inputs": [
        {
          "internalType": "address",
          "name": "_user",
          "type": "address"
        }
      ],
      "name": "getUserCreatedVotes",
      "outputs": [
        {
          "internalType": "uint256[]",
          "name": "",
          "type": "uint256[]"
        }
      ],
      "stateMutability": "view",
      "type": "function"
    },
    {
      "inputs": [
        {
          "internalType": "address",
          "name": "_user",
          "type": "address"
        }
      ],
      "name": "getUserParticipatedVotes",
      "outputs": [
        {
          "internalType": "uint256[]",
          "name": "",
          "type": "uint256[]"
        }
      ],
      "stateMutability": "view",
      "type": "function"
    },
    {
      "inputs": [
        {
          "internalType": "uint256",
          "name": "_voteId",
          "type": "uint256"
        },
        {
          "internalType": "address",
          "name": "_user",
          "type": "address"
        }
      ],
      "name": "getUserVoteChoices",
      "outputs": [
        {
          "internalType": "uint256[]",
          "name": "",
          "type": "uint256[]"
        }
      ],
      "stateMutability": "view",
      "type": "function"
    },
    {
      "inputs": [
        {
          "internalType": "uint256",
          "name": "_voteId",
          "type": "uint256"
        }
      ],
      "name": "getVoteInfo",
      "outputs": [
        {
          "internalType": "uint256",
          "name": "id",
          "type": "uint256"
        },
        {
          "internalType": "string",
          "name": "title",
          "type": "string"
        },
        {
          "internalType": "string",
          "name": "description",
          "type": "string"
        },
        {
          "internalType": "string[]",
          "name": "options",
          "type": "string[]"
        },
        {
          "internalType": "enum DeVote.VoteType",
          "name": "voteType",
          "type": "uint8"
        },
        {
          "internalType": "enum DeVote.VoteStatus",
          "name": "status",
          "type": "uint8"
        },
        {
          "internalType": "address",
          "name": "creator",
          "type": "address"
        },
        {
          "internalType": "uint256",
          "name": "startTime",
          "type": "uint256"
        },
        {
          "internalType": "uint256",
          "name": "endTime",
          "type": "uint256"
        },
        {
          "internalType": "uint256",
          "name": "totalVoters",
          "type": "uint256"
        },
        {
          "internalType": "bool",
          "name": "isPrivate",
          "type": "bool"
        }
      ],
      "stateMutability": "view",
      "type": "function"
    },
    {
      "inputs": [
        {
          "internalType": "uint256",
          "name": "_voteId",
          "type": "uint256"
        }
      ],
      "name": "getVoteResults",
      "outputs": [
        {
          "internalType": "uint256[]",
          "name": "",
          "type": "uint256[]"
        }
      ],
      "stateMutability": "view",
      "type": "function"
    },
    {
      "inputs": [
        {
          "internalType": "uint256",
          "name": "_voteId",
          "type": "uint256"
        },
        {
          "internalType": "address",
          "name": "_user",
          "type": "address"
        }
      ],
      "name": "hasUserVoted",
      "outputs": [
        {
          "internalType": "bool",
          "name": "",
          "type": "bool"
        }
      ],
      "stateMutability": "view",
      "type": "function"
    },
    {
      "inputs": [],
      "name": "owner",
      "outputs": [
        {
          "internalType": "address",
          "name": "",
          "type": "address"
        }
      ],
      "stateMutability": "view",
      "type": "function"
    },
    {
      "inputs": [],
      "name": "pause",
      "outputs": [],
      "stateMutability": "nonpayable",
      "type": "function"
    },
    {
      "inputs": [],
      "name": "paused",
      "outputs": [
        {
          "internalType": "bool",
          "name": "",
          "type": "bool"
        }
      ],
      "stateMutability": "view",
      "type": "function"
    },
    {
      "inputs": [],
      "name": "renounceOwnership",
      "outputs": [],
      "stateMutability": "nonpayable",
      "type": "function"
    },
    {
      "inputs": [
        {
          "internalType": "address",
          "name": "newOwner",
          "type": "address"
        }
      ],
      "name": "transferOwnership",
      "outputs": [],
      "stateMutability": "nonpayable",
      "type": "function"
    },
    {
      "inputs": [],
      "name": "unpause",
      "outputs": [],
      "stateMutability": "nonpayable",
      "type": "function"
    },
    {
      "inputs": [],
      "name": "voteCount",
      "outputs": [
        {
          "internalType": "uint256",
          "name": "",
          "type": "uint256"
        }
      ],
      "stateMutability": "view",
      "type": "function"
    },
    {
      "inputs": [
        {
          "internalType": "uint256",
          "name": "",
          "type": "uint256"
        }
      ],
      "name": "votes",
      "outputs": [
        {
          "internalType": "uint256",
          "name": "id",
          "type": "uint256"
        },
        {
          "internalType": "string",
          "name": "title",
          "type": "string"
        },
        {
          "internalType": "string",
          "name": "description",
          "type": "string"
        },
        {
          "internalType": "enum DeVote.VoteType",
          "name": "voteType",
          "type": "uint8"
        },
        {
          "internalType": "enum DeVote.VoteStatus",
          "name": "status",
          "type": "uint8"
        },
        {
          "internalType": "address",
          "name": "creator",
          "type": "address"
        },
        {
          "internalType": "uint256",
          "name": "startTime",
          "type": "uint256"
        },
        {
          "internalType": "uint256",
          "name": "endTime",
          "type": "uint256"
        },
        {
          "internalType": "uint256",
          "name": "totalVoters",
          "type": "uint256"
        },
        {
          "internalType": "bool",
          "name": "isPrivate",
          "type": "bool"
        }
      ],
      "stateMutability": "view",
      "type": "function"
    }
  ],
  "bytecode": "0x6080604052348015600f57600080fd5b503380603557604051631e4fbdf760e01b81526000600482015260240160405180910390fd5b603c81604a565b50600180556000600455609a565b600080546001600160a01b038381166001600160a01b0319831681178455604051919092169283917f8be0079c531659141344cd1fd0a4f28419497f9722a3daafe3b4186f6b6457e09190a35050565b612845806100a96000396000f3fe608060405234801561001057600080fd5b506004361061014d5760003560e01c8063865df0ad116100c3578063ab5416191161007c578063ab541619146102bd578063bacbe2da146102d0578063c6384071146102e3578063dc296ae1146102ec578063f2fde38b146102ff578063f9696db01461031257600080fd5b8063865df0ad146102295780638d8242731461023c5780638da5cb5b14610266578063a289b7b314610281578063a88922b3146102a2578063aad51c3a146102b557600080fd5b80633f4ba83a116101155780633f4ba83a146101ca578063514353a8146101d25780635c975abb146101e55780635df81330146101f0578063715018a6146102195780638456cb591461022157600080fd5b80630d2fbdee146101525780631fea11431461015c5780632bd876cc146101845780632cb26987146101975780632fa48e9e146101b7575b600080fd5b61015a610325565b005b61016f61016a366004611e79565b6103ea565b60405190151581526020015b60405180910390f35b61015a610192366004611ea5565b6104ec565b6101aa6101a5366004611e79565b61063b565b60405161017b9190611f21565b61015a6101c5366004611fcd565b61074a565b61015a610bbc565b6101aa6101e0366004612073565b610bcc565b60025460ff1661016f565b6102036101fe366004612095565b610d80565b60405161017b9a9998979695949392919061212e565b61015a610eed565b61015a610eff565b61015a610237366004612095565b610f0f565b61024f61024a366004612095565b61100f565b60405161017b9b9a999897969594939291906121b1565b6000546040516001600160a01b03909116815260200161017b565b61029461028f36600461241a565b6112be565b60405190815260200161017b565b6101aa6102b0366004612095565b611610565b6101aa611699565b61015a6102cb36600461250b565b611724565b61015a6102de366004612095565b6118aa565b61029460045481565b61016f6102fa366004611e79565b6119a7565b61015a61030d366004612073565b6119fc565b6101aa610320366004612073565b611a37565b61032d611bdc565b610335611c06565b60005b6004548110156103de5760008082815260036020526040902060050154610100900460ff16600281111561036e5761036e6120f4565b14801561038b575060008181526003602052604090206007015442115b156103d657600081815260036020526040808220600501805461ff0019166101001790555182917fe12e0241ed3b6bb5b8b9e5b0c487661a72158d47e347fa539ef01a1fafcb3a3d91a25b600101610338565b506103e860018055565b565b60008260045481106104175760405162461bcd60e51b815260040161040e90612580565b60405180910390fd5b6000848152600360205260408120906005820154610100900460ff166002811115610444576104446120f4565b146104535760009250506104e5565b80600601544210156104695760009250506104e5565b806007015442111561047f5760009250506104e5565b6001600160a01b0384166000908152600a8201602052604090205460ff16156104ac5760009250506104e5565b600981015460ff16156104df576001600160a01b0384166000908152600c909101602052604090205460ff1691506104e5565b60019250505b5092915050565b6104f4611c06565b6104fc611bdc565b82600454811061051e5760405162461bcd60e51b815260040161040e90612580565b6000848152600360205260408120906005820154610100900460ff16600281111561054b5761054b6120f4565b146105685760405162461bcd60e51b815260040161040e906125b7565b826105b55760405162461bcd60e51b815260206004820152601e60248201527f4465566f74653a20726561736f6e2063616e6e6f7420626520656d7074790000604482015260640161040e565b60058101805461ff00191661020017905560405185907fc7339c6f9b9b0262dd4030219125cd3fb06a12404375dd34e220f57b613447c790600090a2847fd90d974b520ab4a777f8cf99952a445af9f81a8ab90d88ce0ede78923645e2c685856040516106239291906125ee565b60405180910390a2505061063660018055565b505050565b606082600454811061065f5760405162461bcd60e51b815260040161040e90612580565b60008481526003602090815260408083206001600160a01b0387168452600a0190915290205460ff166106d45760405162461bcd60e51b815260206004820152601a60248201527f4465566f74653a207573657220686173206e6f7420766f746564000000000000604482015260640161040e565b60008481526003602090815260408083206001600160a01b0387168452600b018252918290208054835181840281018401909452808452909183018282801561073c57602002820191906000526020600020905b815481526020019060010190808311610728575b505050505091505092915050565b610752611bdc565b61075a611c33565b81600454811061077c5760405162461bcd60e51b815260040161040e90612580565b8260008082815260036020526040902060050154610100900460ff1660028111156107a9576107a96120f4565b146107c65760405162461bcd60e51b815260040161040e906125b7565b6000818152600360205260409020600601544210156108275760405162461bcd60e51b815260206004820181905260248201527f4465566f74653a20766f746520686173206e6f74207374617274656420796574604482015260640161040e565b6000818152600360205260409020600701544211156108815760405162461bcd60e51b81526020600482015260166024820152751119559bdd194e881d9bdd19481a185cc8195b99195960521b604482015260640161040e565b6000848152600360209081526040808320338452600a81019092529091205460ff16156108e85760405162461bcd60e51b81526020600482015260156024820152741119559bdd194e88185b1c9958591e481d9bdd1959605a1b604482015260640161040e565b60008451116109495760405162461bcd60e51b815260206004820152602760248201527f4465566f74653a206d7573742073656c656374206174206c65617374206f6e656044820152661037b83a34b7b760c91b606482015260840161040e565b600981015460ff16156109b757336000908152600c8201602052604090205460ff166109b75760405162461bcd60e51b815260206004820152601e60248201527f4465566f74653a206e6f7420617574686f72697a656420746f20766f74650000604482015260640161040e565b60005b8451811015610a3257600382015485518690839081106109dc576109dc61261d565b602002602001015110610a2a5760405162461bcd60e51b81526020600482015260166024820152752232ab37ba329d1034b73b30b634b21037b83a34b7b760511b604482015260640161040e565b6001016109ba565b506000600582015460ff166001811115610a4e57610a4e6120f4565b03610abe578351600114610abe5760405162461bcd60e51b815260206004820152603160248201527f4465566f74653a2073696e676c652063686f69636520766f746520616c6c6f77604482015270399037b7363c9037b7329037b83a34b7b760791b606482015260840161040e565b336000908152600a820160209081526040808320805460ff19166001179055600b840182529091208551610af492870190611d59565b50600881018054906000610b0783612633565b919050555060005b8451811015610b695781600401858281518110610b2e57610b2e61261d565b602002602001015181548110610b4657610b4661261d565b60009182526020822001805491610b5c83612633565b9091555050600101610b0f565b50336001600160a01b0316857f846263ebea6c399213ba68e41d444a8598a8d0819e7456bfb5455a3132f8379786604051610ba49190611f21565b60405180910390a3505050610bb860018055565b5050565b610bc4611c06565b6103e8611c57565b6060610bd6611c33565b6001600160a01b038216610c2c5760405162461bcd60e51b815260206004820152601c60248201527f4465566f74653a20696e76616c69642075736572206164647265737300000000604482015260640161040e565b60006004546001600160401b03811115610c4857610c48611f64565b604051908082528060200260200182016040528015610c71578160200160208202803683370190505b5090506000805b600454811015610ce45760008181526003602090815260408083206001600160a01b0389168452600a0190915290205460ff1615610cdc5780838381518110610cc357610cc361261d565b602090810291909101015281610cd881612633565b9250505b600101610c78565b506000816001600160401b03811115610cff57610cff611f64565b604051908082528060200260200182016040528015610d28578160200160208202803683370190505b50905060005b82811015610d7557838181518110610d4857610d4861261d565b6020026020010151828281518110610d6257610d6261261d565b6020908102919091010152600101610d2e565b50925050505b919050565b60036020526000908152604090208054600182018054919291610da29061265a565b80601f0160208091040260200160405190810160405280929190818152602001828054610dce9061265a565b8015610e1b5780601f10610df057610100808354040283529160200191610e1b565b820191906000526020600020905b815481529060010190602001808311610dfe57829003601f168201915b505050505090806002018054610e309061265a565b80601f0160208091040260200160405190810160405280929190818152602001828054610e5c9061265a565b8015610ea95780601f10610e7e57610100808354040283529160200191610ea9565b820191906000526020600020905b815481529060010190602001808311610e8c57829003601f168201915b505050506005830154600684015460078501546008860154600990960154949560ff80851696610100860482169650620100009095046001600160a01b031694168a565b610ef5611c06565b6103e86000611ca9565b610f07611c06565b6103e8611cf9565b610f17611bdc565b806004548110610f395760405162461bcd60e51b815260040161040e90612580565b60008281526003602052604090206005015482906201000090046001600160a01b03163314610f7a5760405162461bcd60e51b815260040161040e9061268e565b6000838152600360205260408120906005820154610100900460ff166002811115610fa757610fa76120f4565b14610fc45760405162461bcd60e51b815260040161040e906125b7565b60058101805461ff00191661010017905560405184907fe12e0241ed3b6bb5b8b9e5b0c487661a72158d47e347fa539ef01a1fafcb3a3d90600090a250505061100c60018055565b50565b6000606080606060008060008060008060008b60045481106110435760405162461bcd60e51b815260040161040e90612580565b60008d815260036020819052604090912080546005820154600683015460078401546008850154600986015460018701805497989697909660028a0196908a019560ff808316966101008404821696620100009094046001600160a01b031695929490939291909116908a906110b89061265a565b80601f01602080910402602001604051908101604052809291908181526020018280546110e49061265a565b80156111315780601f1061110657610100808354040283529160200191611131565b820191906000526020600020905b81548152906001019060200180831161111457829003601f168201915b505050505099508880546111449061265a565b80601f01602080910402602001604051908101604052809291908181526020018280546111709061265a565b80156111bd5780601f10611192576101008083540402835291602001916111bd565b820191906000526020600020905b8154815290600101906020018083116111a057829003601f168201915b5050505050985087805480602002602001604051908101604052809291908181526020016000905b828210156112915783829060005260206000200180546112049061265a565b80601f01602080910402602001604051908101604052809291908181526020018280546112309061265a565b801561127d5780601f106112525761010080835404028352916020019161127d565b820191906000526020600020905b81548152906001019060200180831161126057829003601f168201915b5050505050815260200190600101906111e5565b5050505097509c509c509c509c509c509c509c509c509c509c509c50505091939597999b90929496989a50565b60006112c8611bdc565b6112d0611c33565b60008951116113215760405162461bcd60e51b815260206004820152601d60248201527f4465566f74653a207469746c652063616e6e6f7420626520656d707479000000604482015260640161040e565b60028751101561137f5760405162461bcd60e51b815260206004820152602360248201527f4465566f74653a206174206c656173742032206f7074696f6e732072657175696044820152621c995960ea1b606482015260840161040e565b8385106113ce5760405162461bcd60e51b815260206004820152601a60248201527f4465566f74653a20696e76616c69642074696d652072616e6765000000000000604482015260640161040e565b42841161142c5760405162461bcd60e51b815260206004820152602660248201527f4465566f74653a20656e642074696d65206d75737420626520696e207468652060448201526566757475726560d01b606482015260840161040e565b600480546000918261143d83612633565b909155506000818152600360205260409020818155909150600181016114638c8261272c565b50600281016114728b8261272c565b50885161148890600383019060208c0190611da4565b5088516001600160401b038111156114a2576114a2611f64565b6040519080825280602002602001820160405280156114cb578160200160208202803683370190505b5080516114e2916004840191602090910190611d59565b5060058101805489919060ff191660018381811115611503576115036120f4565b0217905550600581018054610100600160b01b03191633620100000217905560068101879055600781018690556000600882015560098101805460ff191686158015919091179091556115b25760005b84518110156115b057600182600c0160008784815181106115765761157661261d565b6020908102919091018101516001600160a01b03168252810191909152604001600020805460ff1916911515919091179055600101611553565b505b336001600160a01b0316827f0b6100ceb01c457fecf4cca917422c21b0e60ae74adab432b05ff824ea0096bf8d8a8a6040516115f0939291906127ea565b60405180910390a350905061160460018055565b98975050505050505050565b60608160045481106116345760405162461bcd60e51b815260040161040e90612580565b6000838152600360209081526040918290206004018054835181840281018401909452808452909183018282801561168b57602002820191906000526020600020905b815481526020019060010190808311611677575b505050505091505b50919050565b60606116a3611c33565b60006004546001600160401b038111156116bf576116bf611f64565b6040519080825280602002602001820160405280156116e8578160200160208202803683370190505b50905060005b60045481101561171e578082828151811061170b5761170b61261d565b60209081029190910101526001016116ee565b50905090565b61172c611bdc565b611734611c33565b806117815760405162461bcd60e51b815260206004820152601c60248201527f4465566f74653a20656d70747920766f74652049447320617272617900000000604482015260640161040e565b60648111156117e45760405162461bcd60e51b815260206004820152602960248201527f4465566f74653a20746f6f206d616e7920766f74657320746f2070726f63657360448201526873206174206f6e636560b81b606482015260840161040e565b60005b818110156118a05760008383838181106118035761180361261d565b905060200201359050600454811015611897576000818152600360205260408120906005820154610100900460ff166002811115611843576118436120f4565b1480156118535750806007015442115b156118955760058101805461ff00191661010017905560405182907fe12e0241ed3b6bb5b8b9e5b0c487661a72158d47e347fa539ef01a1fafcb3a3d90600090a25b505b506001016117e7565b50610bb860018055565b6118b2611bdc565b8060045481106118d45760405162461bcd60e51b815260040161040e90612580565b60008281526003602052604090206005015482906201000090046001600160a01b031633146119155760405162461bcd60e51b815260040161040e9061268e565b6000838152600360205260408120906005820154610100900460ff166002811115611942576119426120f4565b1461195f5760405162461bcd60e51b815260040161040e906125b7565b60058101805461ff00191661020017905560405184907fc7339c6f9b9b0262dd4030219125cd3fb06a12404375dd34e220f57b613447c790600090a250505061100c60018055565b60008260045481106119cb5760405162461bcd60e51b815260040161040e90612580565b505060009182526003602090815260408084206001600160a01b03939093168452600a909201905290205460ff1690565b611a04611c06565b6001600160a01b038116611a2e57604051631e4fbdf760e01b81526000600482015260240161040e565b61100c81611ca9565b6060611a41611c33565b6001600160a01b038216611a975760405162461bcd60e51b815260206004820152601c60248201527f4465566f74653a20696e76616c69642075736572206164647265737300000000604482015260640161040e565b60006004546001600160401b03811115611ab357611ab3611f64565b604051908082528060200260200182016040528015611adc578160200160208202803683370190505b5090506000805b600454811015611b4b576000818152600360205260409020600501546001600160a01b03808716620100009092041603611b435780838381518110611b2a57611b2a61261d565b602090810291909101015281611b3f81612633565b9250505b600101611ae3565b506000816001600160401b03811115611b6657611b66611f64565b604051908082528060200260200182016040528015611b8f578160200160208202803683370190505b50905060005b82811015610d7557838181518110611baf57611baf61261d565b6020026020010151828281518110611bc957611bc961261d565b6020908102919091010152600101611b95565b600260015403611bff57604051633ee5aeb560e01b815260040160405180910390fd5b6002600155565b6000546001600160a01b031633146103e85760405163118cdaa760e01b815233600482015260240161040e565b60025460ff16156103e85760405163d93c066560e01b815260040160405180910390fd5b611c5f611d36565b6002805460ff191690557f5db9ee0a495bf2e6ff9c91a7834c1ba4fdd244a5e8aa4e537bd38aeae4b073aa335b6040516001600160a01b03909116815260200160405180910390a1565b600080546001600160a01b038381166001600160a01b0319831681178455604051919092169283917f8be0079c531659141344cd1fd0a4f28419497f9722a3daafe3b4186f6b6457e09190a35050565b611d01611c33565b6002805460ff191660011790557f62e78cea01bee320cd4e420270b5ea74000d11b0c9f74754ebdbfc544b05a258611c8c3390565b60025460ff166103e857604051638dfc202b60e01b815260040160405180910390fd5b828054828255906000526020600020908101928215611d94579160200282015b82811115611d94578251825591602001919060010190611d79565b50611da0929150611df6565b5090565b828054828255906000526020600020908101928215611dea579160200282015b82811115611dea5782518290611dda908261272c565b5091602001919060010190611dc4565b50611da0929150611e0b565b5b80821115611da05760008155600101611df7565b80821115611da0576000611e1f8282611e28565b50600101611e0b565b508054611e349061265a565b6000825580601f10611e44575050565b601f01602090049060005260206000209081019061100c9190611df6565b80356001600160a01b0381168114610d7b57600080fd5b60008060408385031215611e8c57600080fd5b82359150611e9c60208401611e62565b90509250929050565b600080600060408486031215611eba57600080fd5b8335925060208401356001600160401b03811115611ed757600080fd5b8401601f81018613611ee857600080fd5b80356001600160401b03811115611efe57600080fd5b866020828401011115611f1057600080fd5b939660209190910195509293505050565b602080825282518282018190526000918401906040840190835b81811015611f59578351835260209384019390920191600101611f3b565b509095945050505050565b634e487b7160e01b600052604160045260246000fd5b604051601f8201601f191681016001600160401b0381118282101715611fa257611fa2611f64565b604052919050565b60006001600160401b03821115611fc357611fc3611f64565b5060051b60200190565b60008060408385031215611fe057600080fd5b8235915060208301356001600160401b03811115611ffd57600080fd5b8301601f8101851361200e57600080fd5b803561202161201c82611faa565b611f7a565b8082825260208201915060208360051b85010192508783111561204357600080fd5b6020840193505b8284101561206557833582526020938401939091019061204a565b809450505050509250929050565b60006020828403121561208557600080fd5b61208e82611e62565b9392505050565b6000602082840312156120a757600080fd5b5035919050565b6000815180845260005b818110156120d4576020818501810151868301820152016120b8565b506000602082860101526020601f19601f83011685010191505092915050565b634e487b7160e01b600052602160045260246000fd5b6002811061211a5761211a6120f4565b9052565b6003811061211a5761211a6120f4565b8a81526101406020820152600061214961014083018c6120ae565b828103604084015261215b818c6120ae565b91505061216b606083018a61210a565b612178608083018961211e565b6001600160a01b039690961660a082015260c081019490945260e084019290925261010083015215156101209091015295945050505050565b8b8152610160602082015260006121cc61016083018d6120ae565b82810360408401526121de818d6120ae565b90508281036060840152808b5180835260208301915060208160051b84010160208e0160005b8381101561223657601f198684030185526122208383516120ae565b6020958601959093509190910190600101612204565b50508094505050505061224c608083018a61210a565b61225960a083018961211e565b6001600160a01b03871660c08301528560e0830152846101008301528361012083015261228b61014083018415159052565b9c9b505050505050505050505050565b600082601f8301126122ac57600080fd5b81356001600160401b038111156122c5576122c5611f64565b6122d8601f8201601f1916602001611f7a565b8181528460208386010111156122ed57600080fd5b816020850160208301376000918101602001919091529392505050565b600082601f83011261231b57600080fd5b813561232961201c82611faa565b8082825260208201915060208360051b86010192508583111561234b57600080fd5b602085015b8381101561238c5780356001600160401b0381111561236e57600080fd5b61237d886020838a010161229b565b84525060209283019201612350565b5095945050505050565b803560028110610d7b57600080fd5b80358015158114610d7b57600080fd5b600082601f8301126123c657600080fd5b81356123d461201c82611faa565b8082825260208201915060208360051b8601019250858311156123f657600080fd5b602085015b8381101561238c5761240c81611e62565b8352602092830192016123fb565b600080600080600080600080610100898b03121561243757600080fd5b88356001600160401b0381111561244d57600080fd5b6124598b828c0161229b565b98505060208901356001600160401b0381111561247557600080fd5b6124818b828c0161229b565b97505060408901356001600160401b0381111561249d57600080fd5b6124a98b828c0161230a565b9650506124b860608a01612396565b94506080890135935060a089013592506124d460c08a016123a5565b915060e08901356001600160401b038111156124ef57600080fd5b6124fb8b828c016123b5565b9150509295985092959890939650565b6000806020838503121561251e57600080fd5b82356001600160401b0381111561253457600080fd5b8301601f8101851361254557600080fd5b80356001600160401b0381111561255b57600080fd5b8560208260051b840101111561257057600080fd5b6020919091019590945092505050565b6020808252601b908201527f4465566f74653a20766f746520646f6573206e6f742065786973740000000000604082015260600190565b6020808252601a908201527f4465566f74653a20766f7465206973206e6f7420616374697665000000000000604082015260600190565b60208152816020820152818360408301376000818301604090810191909152601f909201601f19160101919050565b634e487b7160e01b600052603260045260246000fd5b60006001820161265357634e487b7160e01b600052601160045260246000fd5b5060010190565b600181811c9082168061266e57607f821691505b60208210810361169357634e487b7160e01b600052602260045260246000fd5b60208082526030908201527f4465566f74653a206f6e6c7920766f74652063726561746f722063616e20636160408201526f3636103a3434b990333ab731ba34b7b760811b606082015260800190565b601f82111561063657806000526020600020601f840160051c810160208510156127055750805b601f840160051c820191505b818110156127255760008155600101612711565b5050505050565b81516001600160401b0381111561274557612745611f64565b61275981612753845461265a565b846126de565b6020601f82116001811461278d57600083156127755750848201515b600019600385901b1c1916600184901b178455612725565b600084815260208120601f198516915b828110156127bd578785015182556020948501946001909201910161279d565b50848210156127db5786840151600019600387901b60f8161c191681555b50505050600190811b01905550565b6060815260006127fd60608301866120ae565b6020830194909452506040015291905056fea26469706673582212209e2fd58936f85a4a141624771c9676d5f265635d2fb02e57734e247e2afa101b64736f6c634300081c0033",
  "linkReferences": {},
  "deployedLinkReferences": {}
}