{
  "_format": "hh-sol-artifact-1",
  "contractName": "DeVote",
  "sourceName": "contracts/DeVote.sol",
  "abi": [
    {
      "inputs": [],
      "stateMutability": "nonpayable",
      "type": "constructor"
    },
    {
      "anonymous": false,
      "inputs": [
        {
          "indexed": true,
          "internalType": "uint256",
          "name": "voteId",
          "type": "uint256"
        }
      ],
      "name": "VoteCancelled",
      "type": "event"
    },
    {
      "anonymous": false,
      "inputs": [
        {
          "indexed": true,
          "internalType": "uint256",
          "name": "voteId",
          "type": "uint256"
        },
        {
          "indexed": true,
          "internalType": "address",
          "name": "voter",
          "type": "address"
        },
        {
          "indexed": false,
          "internalType": "uint256[]",
          "name": "choices",
          "type": "uint256[]"
        }
      ],
      "name": "VoteCast",
      "type": "event"
    },
    {
      "anonymous": false,
      "inputs": [
        {
          "indexed": true,
          "internalType": "uint256",
          "name": "voteId",
          "type": "uint256"
        },
        {
          "indexed": false,
          "internalType": "string",
          "name": "title",
          "type": "string"
        },
        {
          "indexed": true,
          "internalType": "address",
          "name": "creator",
          "type": "address"
        },
        {
          "indexed": false,
          "internalType": "uint256",
          "name": "startTime",
          "type": "uint256"
        },
        {
          "indexed": false,
          "internalType": "uint256",
          "name": "endTime",
          "type": "uint256"
        }
      ],
      "name": "VoteCreated",
      "type": "event"
    },
    {
      "anonymous": false,
      "inputs": [
        {
          "indexed": true,
          "internalType": "uint256",
          "name": "voteId",
          "type": "uint256"
        }
      ],
      "name": "VoteEnded",
      "type": "event"
    },
    {
      "inputs": [],
      "name": "autoEndExpiredVotes",
      "outputs": [],
      "stateMutability": "nonpayable",
      "type": "function"
    },
    {
      "inputs": [
        {
          "internalType": "uint256",
          "name": "_voteId",
          "type": "uint256"
        },
        {
          "internalType": "address",
          "name": "_user",
          "type": "address"
        }
      ],
      "name": "canUserVote",
      "outputs": [
        {
          "internalType": "bool",
          "name": "",
          "type": "bool"
        }
      ],
      "stateMutability": "view",
      "type": "function"
    },
    {
      "inputs": [
        {
          "internalType": "uint256",
          "name": "_voteId",
          "type": "uint256"
        }
      ],
      "name": "cancelVote",
      "outputs": [],
      "stateMutability": "nonpayable",
      "type": "function"
    },
    {
      "inputs": [
        {
          "internalType": "uint256",
          "name": "_voteId",
          "type": "uint256"
        },
        {
          "internalType": "uint256[]",
          "name": "_choices",
          "type": "uint256[]"
        }
      ],
      "name": "castVote",
      "outputs": [],
      "stateMutability": "nonpayable",
      "type": "function"
    },
    {
      "inputs": [
        {
          "internalType": "string",
          "name": "_title",
          "type": "string"
        },
        {
          "internalType": "string",
          "name": "_description",
          "type": "string"
        },
        {
          "internalType": "string[]",
          "name": "_options",
          "type": "string[]"
        },
        {
          "internalType": "enum DeVote.VoteType",
          "name": "_voteType",
          "type": "uint8"
        },
        {
          "internalType": "uint256",
          "name": "_startTime",
          "type": "uint256"
        },
        {
          "internalType": "uint256",
          "name": "_endTime",
          "type": "uint256"
        },
        {
          "internalType": "bool",
          "name": "_isPrivate",
          "type": "bool"
        },
        {
          "internalType": "address[]",
          "name": "_allowedVoters",
          "type": "address[]"
        }
      ],
      "name": "createVote",
      "outputs": [
        {
          "internalType": "uint256",
          "name": "",
          "type": "uint256"
        }
      ],
      "stateMutability": "nonpayable",
      "type": "function"
    },
    {
      "inputs": [
        {
          "internalType": "uint256",
          "name": "_voteId",
          "type": "uint256"
        }
      ],
      "name": "endVote",
      "outputs": [],
      "stateMutability": "nonpayable",
      "type": "function"
    },
    {
      "inputs": [],
      "name": "getAllVoteIds",
      "outputs": [
        {
          "internalType": "uint256[]",
          "name": "",
          "type": "uint256[]"
        }
      ],
      "stateMutability": "view",
      "type": "function"
    },
    {
      "inputs": [
        {
          "internalType": "address",
          "name": "_user",
          "type": "address"
        }
      ],
      "name": "getUserCreatedVotes",
      "outputs": [
        {
          "internalType": "uint256[]",
          "name": "",
          "type": "uint256[]"
        }
      ],
      "stateMutability": "view",
      "type": "function"
    },
    {
      "inputs": [
        {
          "internalType": "address",
          "name": "_user",
          "type": "address"
        }
      ],
      "name": "getUserParticipatedVotes",
      "outputs": [
        {
          "internalType": "uint256[]",
          "name": "",
          "type": "uint256[]"
        }
      ],
      "stateMutability": "view",
      "type": "function"
    },
    {
      "inputs": [
        {
          "internalType": "uint256",
          "name": "_voteId",
          "type": "uint256"
        },
        {
          "internalType": "address",
          "name": "_user",
          "type": "address"
        }
      ],
      "name": "getUserVoteChoices",
      "outputs": [
        {
          "internalType": "uint256[]",
          "name": "",
          "type": "uint256[]"
        }
      ],
      "stateMutability": "view",
      "type": "function"
    },
    {
      "inputs": [
        {
          "internalType": "uint256",
          "name": "_voteId",
          "type": "uint256"
        }
      ],
      "name": "getVoteInfo",
      "outputs": [
        {
          "internalType": "uint256",
          "name": "id",
          "type": "uint256"
        },
        {
          "internalType": "string",
          "name": "title",
          "type": "string"
        },
        {
          "internalType": "string",
          "name": "description",
          "type": "string"
        },
        {
          "internalType": "string[]",
          "name": "options",
          "type": "string[]"
        },
        {
          "internalType": "enum DeVote.VoteType",
          "name": "voteType",
          "type": "uint8"
        },
        {
          "internalType": "enum DeVote.VoteStatus",
          "name": "status",
          "type": "uint8"
        },
        {
          "internalType": "address",
          "name": "creator",
          "type": "address"
        },
        {
          "internalType": "uint256",
          "name": "startTime",
          "type": "uint256"
        },
        {
          "internalType": "uint256",
          "name": "endTime",
          "type": "uint256"
        },
        {
          "internalType": "uint256",
          "name": "totalVoters",
          "type": "uint256"
        },
        {
          "internalType": "bool",
          "name": "isPrivate",
          "type": "bool"
        }
      ],
      "stateMutability": "view",
      "type": "function"
    },
    {
      "inputs": [
        {
          "internalType": "uint256",
          "name": "_voteId",
          "type": "uint256"
        }
      ],
      "name": "getVoteResults",
      "outputs": [
        {
          "internalType": "uint256[]",
          "name": "",
          "type": "uint256[]"
        }
      ],
      "stateMutability": "view",
      "type": "function"
    },
    {
      "inputs": [
        {
          "internalType": "uint256",
          "name": "_voteId",
          "type": "uint256"
        },
        {
          "internalType": "address",
          "name": "_user",
          "type": "address"
        }
      ],
      "name": "hasUserVoted",
      "outputs": [
        {
          "internalType": "bool",
          "name": "",
          "type": "bool"
        }
      ],
      "stateMutability": "view",
      "type": "function"
    },
    {
      "inputs": [],
      "name": "owner",
      "outputs": [
        {
          "internalType": "address",
          "name": "",
          "type": "address"
        }
      ],
      "stateMutability": "view",
      "type": "function"
    },
    {
      "inputs": [],
      "name": "voteCount",
      "outputs": [
        {
          "internalType": "uint256",
          "name": "",
          "type": "uint256"
        }
      ],
      "stateMutability": "view",
      "type": "function"
    },
    {
      "inputs": [
        {
          "internalType": "uint256",
          "name": "",
          "type": "uint256"
        }
      ],
      "name": "votes",
      "outputs": [
        {
          "internalType": "uint256",
          "name": "id",
          "type": "uint256"
        },
        {
          "internalType": "string",
          "name": "title",
          "type": "string"
        },
        {
          "internalType": "string",
          "name": "description",
          "type": "string"
        },
        {
          "internalType": "enum DeVote.VoteType",
          "name": "voteType",
          "type": "uint8"
        },
        {
          "internalType": "enum DeVote.VoteStatus",
          "name": "status",
          "type": "uint8"
        },
        {
          "internalType": "address",
          "name": "creator",
          "type": "address"
        },
        {
          "internalType": "uint256",
          "name": "startTime",
          "type": "uint256"
        },
        {
          "internalType": "uint256",
          "name": "endTime",
          "type": "uint256"
        },
        {
          "internalType": "uint256",
          "name": "totalVoters",
          "type": "uint256"
        },
        {
          "internalType": "bool",
          "name": "isPrivate",
          "type": "bool"
        }
      ],
      "stateMutability": "view",
      "type": "function"
    }
  ],
  "bytecode": "0x6080604052348015600f57600080fd5b50600280546001600160a01b031916331790556000600155611ffd806100366000396000f3fe608060405234801561001057600080fd5b50600436106101005760003560e01c80638da5cb5b11610097578063bacbe2da11610066578063bacbe2da1461024a578063c63840711461025d578063dc296ae114610266578063f9696db01461027957600080fd5b80638da5cb5b146101e3578063a289b7b31461020e578063a88922b31461022f578063aad51c3a1461024257600080fd5b8063514353a8116100d3578063514353a81461016a5780635df813301461017d578063865df0ad146101a65780638d824273146101b957600080fd5b80630d2fbdee146101055780631fea11431461010f5780632cb26987146101375780632fa48e9e14610157575b600080fd5b61010d61028c565b005b61012261011d36600461176d565b610338565b60405190151581526020015b60405180910390f35b61014a61014536600461176d565b61043a565b60405161012e9190611799565b61010d610165366004611845565b61053a565b61014a6101783660046118eb565b61095a565b61019061018b36600461190d565b610aac565b60405161012e9a999897969594939291906119a6565b61010d6101b436600461190d565b610c19565b6101cc6101c736600461190d565b610d08565b60405161012e9b9a99989796959493929190611a29565b6002546101f6906001600160a01b031681565b6040516001600160a01b03909116815260200161012e565b61022161021c366004611c92565b610fb2565b60405190815260200161012e565b61014a61023d36600461190d565b6112bb565b61014a611342565b61010d61025836600461190d565b6113bf565b61022160015481565b61012261027436600461176d565b6114ae565b61014a6102873660046118eb565b611501565b60005b6001548110156103355760008082815260208190526040902060050154610100900460ff1660028111156102c5576102c561196c565b1480156102e2575060008181526020819052604090206007015442115b1561032d57600081815260208190526040808220600501805461ff0019166101001790555182917fe12e0241ed3b6bb5b8b9e5b0c487661a72158d47e347fa539ef01a1fafcb3a3d91a25b60010161028f565b50565b60008260015481106103655760405162461bcd60e51b815260040161035c90611d83565b60405180910390fd5b6000848152602081905260408120906005820154610100900460ff1660028111156103925761039261196c565b146103a1576000925050610433565b80600601544210156103b7576000925050610433565b80600701544211156103cd576000925050610433565b6001600160a01b0384166000908152600a8201602052604090205460ff16156103fa576000925050610433565b600981015460ff161561042d576001600160a01b0384166000908152600c909101602052604090205460ff169150610433565b60019250505b5092915050565b606082600154811061045e5760405162461bcd60e51b815260040161035c90611d83565b6000848152602081815260408083206001600160a01b0387168452600a0190915290205460ff166104c65760405162461bcd60e51b8152602060048201526012602482015271155cd95c881a185cc81b9bdd081d9bdd195960721b604482015260640161035c565b6000848152602081815260408083206001600160a01b0387168452600b018252918290208054835181840281018401909452808452909183018282801561052c57602002820191906000526020600020905b815481526020019060010190808311610518575b505050505091505092915050565b81600154811061055c5760405162461bcd60e51b815260040161035c90611d83565b8260008082815260208190526040902060050154610100900460ff1660028111156105895761058961196c565b146105a65760405162461bcd60e51b815260040161035c90611db0565b6000818152602081905260409020600601544210156106075760405162461bcd60e51b815260206004820152601860248201527f566f746520686173206e6f742073746172746564207965740000000000000000604482015260640161035c565b6000818152602081905260409020600701544211156106595760405162461bcd60e51b815260206004820152600e60248201526d159bdd19481a185cc8195b99195960921b604482015260640161035c565b600084815260208181526040808320338452600a81019092529091205460ff16156106b65760405162461bcd60e51b815260206004820152600d60248201526c105b1c9958591e481d9bdd1959609a1b604482015260640161035c565b60008451116107075760405162461bcd60e51b815260206004820152601f60248201527f4d7573742073656c656374206174206c65617374206f6e65206f7074696f6e00604482015260640161035c565b600981015460ff161561076e57336000908152600c8201602052604090205460ff1661076e5760405162461bcd60e51b81526020600482015260166024820152754e6f7420617574686f72697a656420746f20766f746560501b604482015260640161035c565b60005b84518110156107e1576003820154855186908390811061079357610793611ddc565b6020026020010151106107d95760405162461bcd60e51b815260206004820152600e60248201526d24b73b30b634b21037b83a34b7b760911b604482015260640161035c565b600101610771565b506000600582015460ff1660018111156107fd576107fd61196c565b036108655783516001146108655760405162461bcd60e51b815260206004820152602960248201527f53696e676c652063686f69636520766f746520616c6c6f7773206f6e6c79206f60448201526837329037b83a34b7b760b91b606482015260840161035c565b336000908152600a820160209081526040808320805460ff19166001179055600b84018252909120855161089b92870190611648565b506008810180549060006108ae83611df2565b919050555060005b845181101561091057816004018582815181106108d5576108d5611ddc565b6020026020010151815481106108ed576108ed611ddc565b6000918252602082200180549161090383611df2565b90915550506001016108b6565b50336001600160a01b0316857f846263ebea6c399213ba68e41d444a8598a8d0819e7456bfb5455a3132f837978660405161094b9190611799565b60405180910390a35050505050565b606060006001546001600160401b03811115610978576109786117dc565b6040519080825280602002602001820160405280156109a1578160200160208202803683370190505b5090506000805b600154811015610a12576000818152602081815260408083206001600160a01b0389168452600a0190915290205460ff1615610a0a57808383815181106109f1576109f1611ddc565b602090810291909101015281610a0681611df2565b9250505b6001016109a8565b506000816001600160401b03811115610a2d57610a2d6117dc565b604051908082528060200260200182016040528015610a56578160200160208202803683370190505b50905060005b82811015610aa357838181518110610a7657610a76611ddc565b6020026020010151828281518110610a9057610a90611ddc565b6020908102919091010152600101610a5c565b50949350505050565b60006020819052908152604090208054600182018054919291610ace90611e19565b80601f0160208091040260200160405190810160405280929190818152602001828054610afa90611e19565b8015610b475780601f10610b1c57610100808354040283529160200191610b47565b820191906000526020600020905b815481529060010190602001808311610b2a57829003601f168201915b505050505090806002018054610b5c90611e19565b80601f0160208091040260200160405190810160405280929190818152602001828054610b8890611e19565b8015610bd55780601f10610baa57610100808354040283529160200191610bd5565b820191906000526020600020905b815481529060010190602001808311610bb857829003601f168201915b505050506005830154600684015460078501546008860154600990960154949560ff80851696610100860482169650620100009095046001600160a01b031694168a565b806001548110610c3b5760405162461bcd60e51b815260040161035c90611d83565b60008281526020819052604090206005015482906201000090046001600160a01b03163314610c7c5760405162461bcd60e51b815260040161035c90611e4d565b6000838152602081905260408120906005820154610100900460ff166002811115610ca957610ca961196c565b14610cc65760405162461bcd60e51b815260040161035c90611db0565b60058101805461ff00191661010017905560405184907fe12e0241ed3b6bb5b8b9e5b0c487661a72158d47e347fa539ef01a1fafcb3a3d90600090a250505050565b6000606080606060008060008060008060008b6001548110610d3c5760405162461bcd60e51b815260040161035c90611d83565b60008d81526020819052604090208054600582015460068301546007840154600885015460098601546001870180549095600289019560038a019560ff808416966101008504821696620100009095046001600160a01b03169593949293909291909116908a90610dac90611e19565b80601f0160208091040260200160405190810160405280929190818152602001828054610dd890611e19565b8015610e255780601f10610dfa57610100808354040283529160200191610e25565b820191906000526020600020905b815481529060010190602001808311610e0857829003601f168201915b50505050509950888054610e3890611e19565b80601f0160208091040260200160405190810160405280929190818152602001828054610e6490611e19565b8015610eb15780601f10610e8657610100808354040283529160200191610eb1565b820191906000526020600020905b815481529060010190602001808311610e9457829003601f168201915b5050505050985087805480602002602001604051908101604052809291908181526020016000905b82821015610f85578382906000526020600020018054610ef890611e19565b80601f0160208091040260200160405190810160405280929190818152602001828054610f2490611e19565b8015610f715780601f10610f4657610100808354040283529160200191610f71565b820191906000526020600020905b815481529060010190602001808311610f5457829003601f168201915b505050505081526020019060010190610ed9565b5050505097509c509c509c509c509c509c509c509c509c509c509c50505091939597999b90929496989a50565b600080895111610ffc5760405162461bcd60e51b81526020600482015260156024820152745469746c652063616e6e6f7420626520656d70747960581b604482015260640161035c565b60028751101561104e5760405162461bcd60e51b815260206004820152601b60248201527f4174206c656173742032206f7074696f6e732072657175697265640000000000604482015260640161035c565b8385106110925760405162461bcd60e51b8152602060048201526012602482015271496e76616c69642074696d652072616e676560701b604482015260640161035c565b4284116110e15760405162461bcd60e51b815260206004820152601e60248201527f456e642074696d65206d75737420626520696e20746865206675747572650000604482015260640161035c565b60018054600091826110f283611df2565b909155506000818152602081905260409020818155909150600181016111188c82611ee4565b50600281016111278b82611ee4565b50885161113d90600383019060208c0190611693565b5088516001600160401b03811115611157576111576117dc565b604051908082528060200260200182016040528015611180578160200160208202803683370190505b508051611197916004840191602090910190611648565b5060058101805489919060ff1916600183818111156111b8576111b861196c565b0217905550600581018054610100600160b01b03191633620100000217905560068101879055600781018690556000600882015560098101805460ff191686158015919091179091556112675760005b845181101561126557600182600c01600087848151811061122b5761122b611ddc565b6020908102919091018101516001600160a01b03168252810191909152604001600020805460ff1916911515919091179055600101611208565b505b336001600160a01b0316827f0b6100ceb01c457fecf4cca917422c21b0e60ae74adab432b05ff824ea0096bf8d8a8a6040516112a593929190611fa2565b60405180910390a3509998505050505050505050565b60608160015481106112df5760405162461bcd60e51b815260040161035c90611d83565b600083815260208181526040918290206004018054835181840281018401909452808452909183018282801561133457602002820191906000526020600020905b815481526020019060010190808311611320575b505050505091505b50919050565b606060006001546001600160401b03811115611360576113606117dc565b604051908082528060200260200182016040528015611389578160200160208202803683370190505b50905060005b60015481101561133c57808282815181106113ac576113ac611ddc565b602090810291909101015260010161138f565b8060015481106113e15760405162461bcd60e51b815260040161035c90611d83565b60008281526020819052604090206005015482906201000090046001600160a01b031633146114225760405162461bcd60e51b815260040161035c90611e4d565b6000838152602081905260408120906005820154610100900460ff16600281111561144f5761144f61196c565b1461146c5760405162461bcd60e51b815260040161035c90611db0565b60058101805461ff00191661020017905560405184907fc7339c6f9b9b0262dd4030219125cd3fb06a12404375dd34e220f57b613447c790600090a250505050565b60008260015481106114d25760405162461bcd60e51b815260040161035c90611d83565b50506000918252602082815260408084206001600160a01b03939093168452600a909201905290205460ff1690565b606060006001546001600160401b0381111561151f5761151f6117dc565b604051908082528060200260200182016040528015611548578160200160208202803683370190505b5090506000805b6001548110156115b7576000818152602081905260409020600501546001600160a01b038087166201000090920416036115af578083838151811061159657611596611ddc565b6020908102919091010152816115ab81611df2565b9250505b60010161154f565b506000816001600160401b038111156115d2576115d26117dc565b6040519080825280602002602001820160405280156115fb578160200160208202803683370190505b50905060005b82811015610aa35783818151811061161b5761161b611ddc565b602002602001015182828151811061163557611635611ddc565b6020908102919091010152600101611601565b828054828255906000526020600020908101928215611683579160200282015b82811115611683578251825591602001919060010190611668565b5061168f9291506116e5565b5090565b8280548282559060005260206000209081019282156116d9579160200282015b828111156116d957825182906116c99082611ee4565b50916020019190600101906116b3565b5061168f9291506116fa565b5b8082111561168f57600081556001016116e6565b8082111561168f57600061170e8282611717565b506001016116fa565b50805461172390611e19565b6000825580601f10611733575050565b601f01602090049060005260206000209081019061033591906116e5565b80356001600160a01b038116811461176857600080fd5b919050565b6000806040838503121561178057600080fd5b8235915061179060208401611751565b90509250929050565b602080825282518282018190526000918401906040840190835b818110156117d15783518352602093840193909201916001016117b3565b509095945050505050565b634e487b7160e01b600052604160045260246000fd5b604051601f8201601f191681016001600160401b038111828210171561181a5761181a6117dc565b604052919050565b60006001600160401b0382111561183b5761183b6117dc565b5060051b60200190565b6000806040838503121561185857600080fd5b8235915060208301356001600160401b0381111561187557600080fd5b8301601f8101851361188657600080fd5b803561189961189482611822565b6117f2565b8082825260208201915060208360051b8501019250878311156118bb57600080fd5b6020840193505b828410156118dd5783358252602093840193909101906118c2565b809450505050509250929050565b6000602082840312156118fd57600080fd5b61190682611751565b9392505050565b60006020828403121561191f57600080fd5b5035919050565b6000815180845260005b8181101561194c57602081850181015186830182015201611930565b506000602082860101526020601f19601f83011685010191505092915050565b634e487b7160e01b600052602160045260246000fd5b600281106119925761199261196c565b9052565b600381106119925761199261196c565b8a8152610140602082015260006119c161014083018c611926565b82810360408401526119d3818c611926565b9150506119e3606083018a611982565b6119f06080830189611996565b6001600160a01b039690961660a082015260c081019490945260e084019290925261010083015215156101209091015295945050505050565b8b815261016060208201526000611a4461016083018d611926565b8281036040840152611a56818d611926565b90508281036060840152808b5180835260208301915060208160051b84010160208e0160005b83811015611aae57601f19868403018552611a98838351611926565b6020958601959093509190910190600101611a7c565b505080945050505050611ac4608083018a611982565b611ad160a0830189611996565b6001600160a01b03871660c08301528560e08301528461010083015283610120830152611b0361014083018415159052565b9c9b505050505050505050505050565b600082601f830112611b2457600080fd5b81356001600160401b03811115611b3d57611b3d6117dc565b611b50601f8201601f19166020016117f2565b818152846020838601011115611b6557600080fd5b816020850160208301376000918101602001919091529392505050565b600082601f830112611b9357600080fd5b8135611ba161189482611822565b8082825260208201915060208360051b860101925085831115611bc357600080fd5b602085015b83811015611c045780356001600160401b03811115611be657600080fd5b611bf5886020838a0101611b13565b84525060209283019201611bc8565b5095945050505050565b80356002811061176857600080fd5b8035801515811461176857600080fd5b600082601f830112611c3e57600080fd5b8135611c4c61189482611822565b8082825260208201915060208360051b860101925085831115611c6e57600080fd5b602085015b83811015611c0457611c8481611751565b835260209283019201611c73565b600080600080600080600080610100898b031215611caf57600080fd5b88356001600160401b03811115611cc557600080fd5b611cd18b828c01611b13565b98505060208901356001600160401b03811115611ced57600080fd5b611cf98b828c01611b13565b97505060408901356001600160401b03811115611d1557600080fd5b611d218b828c01611b82565b965050611d3060608a01611c0e565b94506080890135935060a08901359250611d4c60c08a01611c1d565b915060e08901356001600160401b03811115611d6757600080fd5b611d738b828c01611c2d565b9150509295985092959890939650565b602080825260139082015272159bdd1948191bd95cc81b9bdd08195e1a5cdd606a1b604082015260600190565b602080825260129082015271566f7465206973206e6f742061637469766560701b604082015260600190565b634e487b7160e01b600052603260045260246000fd5b600060018201611e1257634e487b7160e01b600052601160045260246000fd5b5060010190565b600181811c90821680611e2d57607f821691505b60208210810361133c57634e487b7160e01b600052602260045260246000fd5b60208082526028908201527f4f6e6c7920766f74652063726561746f722063616e2063616c6c207468697320604082015267333ab731ba34b7b760c11b606082015260800190565b601f821115611edf57806000526020600020601f840160051c81016020851015611ebc5750805b601f840160051c820191505b81811015611edc5760008155600101611ec8565b50505b505050565b81516001600160401b03811115611efd57611efd6117dc565b611f1181611f0b8454611e19565b84611e95565b6020601f821160018114611f455760008315611f2d5750848201515b600019600385901b1c1916600184901b178455611edc565b600084815260208120601f198516915b82811015611f755787850151825560209485019460019092019101611f55565b5084821015611f935786840151600019600387901b60f8161c191681555b50505050600190811b01905550565b606081526000611fb56060830186611926565b6020830194909452506040015291905056fea2646970667358221220380754aded9df75d6ff638d092498fbdad44b5f436265a48b5032195ce6cdc5864736f6c634300081c0033",
  "linkReferences": {},
  "deployedLinkReferences": {}
}